:020000040800F2
:10000000C805002045010008950400089704000871
:100010009B0400089F040008A304000800000000DF
:10002000000000000000000000000000A70400081D
:10003000A904000800000000AB040008AD0400089B
:100040005F0100085F0100085F0100085F01000810
:100050005F0100085F0100085F0100085F01000800
:100060005F0100085F0100085F0100085F010008F0
:100070005F0100085F0100085F0100085F010008E0
:100080005F0100085F0100085F0100085F010008D0
:100090005F0100085F0100085F0100085F010008C0
:1000A0005F010008870500085F0100085F01000884
:1000B0005F010008AF0400085F0100085F0100084D
:1000C0005F0100085F0100085F0100085F01000890
:1000D0005F0100085F010008230600085F010008B7
:1000E000990500085F0100085F0100085F01000832
:1000F0005F0100085F0100085F0100085F01000860
:100100005F0100085F0100085F0100085F0100084F
:100110005F0100085F0100085F0100085F0100083F
:100120005F0100085F0100085F0100085F0100082F
:10013000DFF80CD004F0C4F8004800472B02000898
:10014000C80500200648804706480047FEE7FEE74E
:10015000FEE7FEE7FEE7FEE7FEE7FEE7FEE7FEE777
:10016000C53900083101000800E0401E0028FCD11C
:10017000704770B5002100220023012016E0974C43
:1001800034F81050441E954E26F81450944C34F810
:100190001050441E924E26F81450924C34F81050D1
:1001A000441E904E26F81450441CE0B21028E6DBA2
:1001B0008D4CB4F90040894DEC838C4CB4F900406F
:1001C000874DEC838A4CB4F90040864DEC830020C7
:1001D0000DE0824C34F910402144814C34F9104038
:1001E0002244804C34F910402344441CE0B21028CF
:1001F000EFDB0C46CD1701EB15752D112DB27A4EA4
:1002000035801446D51702EB15752D112DB2774E9A
:1002100035801C46DD1703EB15752D112DB2744E7C
:10022000358070BD7349086070470EB503F0CAFB96
:10023000482001F09DFA01F081FA4FF40020FFF709
:1002400093FF01F0B9F800F019FF01F085F801F013
:10025000ACFB01F0F5FA00F01DFA00F0E5FF00201C
:10026000654908800021654802F066FE0021634868
:1002700003F0F6F801206249087000206149087017
:100280000320FFF7CFFFA7E05F480078002879D070
:1002900000205D4908705D485549544A524BCDE9EC
:1002A000002102905A4A5B495B4801F004F8FFF7CD
:1002B00060FF59480088401E00B2574908804A48EC
:1002C0000088401E00B24849088048480088401E07
:1002D00000B24649088046480088401E00B24449A2
:1002E00008804D48B0F9000003F042FE04464B4937
:1002F00003F040FC4A4908603B49B1F9001049430A
:100300003B4AB2F900203A4BB3F9003002FB03102C
:1003100003F037FE804604F08FF904460D4633485B
:10032000B0F9000003F02DFE064622462B4603F0EE
:10033000B0FD824604F06EF8CDE9000103F086FEC0
:10034000384908600846006803F045FE0646364A0C
:10035000364B03F02CFD044603F078FE314908606B
:10036000334B344A2E4801682E48006800F062FD85
:100370003148007800F055FA2D4801682D48006892
:1003800000F083FB2D480078002825D000202B4961
:1003900008702948007801F08FFA29480078012870
:1003A00004D0022809D0032815D10DE02548028881
:1003B00025A12B4801F039F90DE02248028829A136
:1003C000274801F032F906E01E4802882BA1244894
:1003D00001F02BF900BF00BF56E7000030010020FC
:1003E0005001002070010020480000204A00002039
:1003F0004C0000202C00002052000020002C014066
:100400005A0000205B000020290000204E00002040
:1004100046000020440000204200002011C2793D27
:100420003400002030000020CB67791EDCA54C4052
:100430003C000020380000202800002000000020A0
:10044000240000202600002046726F6E745F6469ED
:100450007374616E63653A20256420636D0D0A0034
:10046000004400404C6566745F64697374616E6338
:10047000653A20256420636D0D0A000052696768A3
:10048000745F64697374616E63653A2025642063E8
:100490006D0D0A00704700BFFEE700BFFEE700BF1A
:1004A000FEE700BFFEE7704770477047704710B522
:1004B0000121654803F009F8002863D00121624852
:1004C00003F014F861480088401C60490880084621
:1004D0000088B0F57A7F08D15D48006880F0800020
:1004E0005B4908600020594908805A480078401C40
:1004F0005849087008460078142804D10020087074
:1005000001205549087055480078401C534908702F
:1005100008460078C82804D10020087001205049FE
:1005200008705048007830B34F480078401C4E495E
:100530000870084600784D490968884206DC4FF487
:10054000006143480C3801F062FC1BE0464800782B
:10055000292811D100204449087045480078401CE2
:10056000434908700846007814280BD100203D4903
:1005700008703F49087005E04FF4006134480C38BA
:1005800001F047FC10BD10B501203A490870012167
:10059000394802F097FF10BD10B54FF4005001F03C
:1005A00011FB00283CD00021334802F059FF012103
:1005B000314802F0C1FC00BF4FF400512F4801F058
:1005C0000CFC18B12B4800780128F5D12948007897
:1005D00018B100202A4908800BE0274802F063FF89
:1005E00028490880084600883A2190FBF1F0244908
:1005F000088000202349088000211F4802F09CFC4D
:1006000000211D4802F02CFF00201A4908701E48E6
:10061000006820F400501C490860481401F0E3FA17
:1006200010BD10B540F22551184803F023F948B128
:1006300040F22551154803F047F9144803F09AF8A1
:100640001349087010BD000000040040580000204D
:100650000C08014056000020290000205500002011
:10066000000000205A0000205C0000202C00002028
:100670005B00002054000020002C0140000C0140D1
:1006800026000020520000200004014000440040E9
:100690002800002000B589B001211C2001F0B4FF22
:1006A00048F20320ADF8040048208DF8070003202D
:1006B0008DF8060001A9FE4801F0FEFA3220ADF8DF
:1006C000040048208DF8070003208DF8060001A9DA
:1006D000F84801F0F1FA4020ADF8040048208DF808
:1006E000070003208DF8060001A9F34801F0E4FAA1
:1006F0004021F14801F08BFB0121ED4801F087FB1F
:100700004FF40041EA4801F082FB2021E94801F062
:100710007EFB1021E74801F07AFB0221E44801F05A
:1007200078FB4FF40070ADF8040018208DF8070036
:1007300003208DF8060001A9DD4801F0BDFA022072
:10074000ADF8040018208DF8070003208DF806008E
:1007500001A9D84801F0B0FA0121042001F061FF9D
:1007600041F61F40ADF81C000920ADF8180000202C
:10077000ADF81E00ADF81A0006A9D04802F080F8C6
:100780006020ADF808000120ADF80A000020ADF8A7
:1007900010004FF46160ADF80E0002A9C74802F0E6
:1007A00086F90821C54802F016FD0121C34802F070
:1007B000C3FC0121C14802F0BFFB0121084601F042
:1007C00030FF41F61F40ADF81C000920ADF81800BD
:1007D0000020ADF81E00ADF81A0006A94FF08040C9
:1007E00002F04EF86020ADF808000120ADF80A00D4
:1007F0000020ADF810004FF46160ADF80E0002A9C2
:10080000800602F0BCF80821C80602F0CEFC0121E7
:10081000880702F091FC0121880702F08DFB09B0E6
:1008200000BD2DE9F04104466C2C78D004DC622C2C
:100830005CD0662C59D104E0722C71D0732CF9D1A4
:10084000DDE002209E4908709E480078622811D1A0
:100850009D489E4908604FF07E509D4908600020E9
:100860009C4908809C4908809C490880C8209C4974
:1008700008703AE09A48007880B99A48934908602D
:100880004FF07F50924908604DF6F0009149088082
:100890000020914908809149088026E0904800781E
:1008A000401E8F4908708948006803F094FB054694
:1008B0008D4A8E4B03F0D4F9074603F0C7FB8349FA
:1008C00008608348006803F086FB0546884A894B28
:1008D00003F0C6F9074603F0B9FB7D4908607D487F
:1008E0000088323800B27B4908809CE003207449BC
:1008F000087074480078662813D1734873490860FB
:100900004FF07E5072490860002072490880724999
:10091000088072490880C820714908703CE03CE0BA
:1009200054E06F48007880B96E48684908604FF01D
:100930007F506749086042F21070664908800020C5
:10094000654908806549088026E065480078401EB2
:10095000634908705D48006803F03DFB0546624A44
:10096000624B03F07DF9074603F070FB57490860BE
:100970005748006803F02FFB05465D4A5D4B03F0C6
:100980006FF9074603F062FB51490860514800883F
:10099000323000B24F49088045E0042048490870D1
:1009A00055484A4908604FF07F5049490860002087
:1009B000484908804FF4FA70474908804FF60C60A8
:1009C000464908800020464908702CE005203C4933
:1009D000087049483D4908604FF07F503C49086025
:1009E00000203C4908804FF60C603B4908804FF4DA
:1009F000FA703A49088000203949087013E0012054
:100A00002F4908703048314908604FF07E50304916
:100A1000086000202F4908802F4908802F4908804E
:100A20002F49087000BF00BF26480470BDE8F08160
:100A300010B50021012008E0304A32F81030421E83
:100A40002E4C24F81230421CD0B21428F4DB2C4B6C
:100A5000B3F900302B4CB4F900401A1902EBD273F1
:100A60005B101BB2254CE384002005E0234A32F9D9
:100A700010201144421CD0B21428F7DB142291FB41
:100A8000F2F212B2204B1A8010BD2DE9F34F91B053
:100A900083461E480168584603F069F81C490860FF
:100AA000FFF7C6FF4FF066321A4B1B4903C935E00A
:100AB000000C014000080140001001400008004007
:100AC00025000020840000200AD7233C7800002065
:100AD00080000020640000206600002068000020E4
:100AE0006C000020CDCC4C3D2D431CEBE2362A3F60
:100AF0007B14AE47E17A643F8FC2F53C9001002041
:100B000060000020620000206A00002070000020C9
:100B10008C0000206666E63F9800002003F047F94D
:100B2000AF4A03C2AF48B0F9000003F02AFA074603
:100B30004FF03332AC4B03F03AF90546A8480CC8E5
:100B4000284603F08DF8A64A03C2A548A7490CC859
:100B500003C903F085F8A54A03C2A548B0F900000F
:100B600003F00FFA0546A1480CC8284603F01CF90B
:100B70009E4A03C200229F4B9C4903C903F03EFAE0
:100B800004D200209B49994A03C20AE000229A4BF2
:100B9000964903C903F046FA03D200209649934AC6
:100BA00003C29648006803F016FA05468C480CC844
:100BB000284603F0FCF8CDE906019148006803F0EF
:100BC0000AFA054689480CC8284603F0F0F807469B
:100BD00088468C481299006802F0CCFF06468A4885
:100BE00001688A48006802F0C5FF3146019002F0B2
:100BF00069FF054603F0EFF93A464346CDE90201A5
:100C000003F0CFF8CDE90401DDE9062303F0C9F8CC
:100C1000CDE9080103F01AFA7D4908607D48B0F972
:100C2000000003F0A5F907467948006880F0004607
:100C30003946304602F046FF054603F0B3F900B2EC
:100C4000754908807548B0F9000003F091F907462E
:100C50006F48006880F000463946304602F032FFA7
:100C6000054603F09FF900B26D4908806A48B0F963
:100C7000000041F27C51884203DD08466649088045
:100C800009E06548B0F900006649884203DA4EF68B
:100C90008420614908806248B0F9000041F27C512B
:100CA000884203DD08465E49088009E05C48B0F9E7
:100CB00000005C49884203DA4EF6842058490880D7
:100CC0005548B0F90000002809DD4FF400415648AE
:100CD00001F09FF8504800881FFA80F909E04FF4AE
:100CE0000041514801F093F84B48008840421FFAF8
:100CF00080F94B48B0F90000002808DD02214A487D
:100D000001F085F8464800881FFA80FA08E00221C1
:100D1000454801F07EF84248008840421FFA80FAB8
:100D2000424890FBF9F4B4F5803F02D34FF6FF79C7
:100D300001E01FFA84F93D4890FBFAF4B4F5803FD6
:100D400002D34FF6FF7A01E01FFA84FAA9F10100FD
:100D500080B2ADF83C001D20ADF838000020ADF8A1
:100D60003E00ADF83A000EA9314801F089FD60203F
:100D7000ADF828000120ADF82A000020ADF83000C1
:100D80004FEA6900ADF82E000AA9294801F08FFE4C
:100D9000AAF1010080B2ADF83C001D20ADF838008A
:100DA0000020ADF83E00ADF83A000EA94FF08040AB
:100DB00001F066FD6020ADF828000120ADF82A00A2
:100DC0000020ADF830004FEA6A00ADF82E000AA905
:100DD0004FF0804001F0D3FD13B0BDE8F08F00006C
:100DE000980000206A0000203333D33F9000002099
:100DF00064000020004CEDC0004CED40800000205D
:100E0000780000207C0000208C000020740000206E
:100E1000880000206800002060000020660000209C
:100E20006200002084EAFFFF000C014040420F00F6
:100E3000000800402DE9F04707460C4615461E46BF
:100E40007F480168204602F08FFE81467D4902F00E
:100E500091FE80467C480168404602F033FE7A49A4
:100E600008607A4841687A4802F07EFE80467748FA
:100E70008168404602F078FE764908607348C06891
:100E800080F0004048607148C06880F00040886091
:100E90006F48C86008686B4902F06CFE80466B487A
:100EA0000168404602F00EFE6849086069494868DA
:100EB000644902F05FFE804664484168404602F0A3
:100EC00001FE62494860634988685E4902F052FE4B
:100ED00080465E488168404602F0F4FD5B498860C8
:100EE0005C49C868574902F045FE80465748C168CA
:100EF000404602F0E7FD5549C8605348016838464E
:100F000002F032FE54490860504801684FF07E50AC
:100F100002F030FE514908604C4881684FF07E5025
:100F200002F028FE4E4908604C4801684FF07E50A0
:100F300002F020FE80464FF07C5102F0C3FD49498B
:100F40000860084601684548006802F049FE4649C5
:100F50000860444801684248006802F041FE434985
:100F600008603E48006842490860384841684FF0D0
:100F70007E5002F0FFFD3F4908603D4801683A4855
:100F8000006802F0F7FD804630480168404602F0F4
:100F9000EEFD2E490860374801683348006802F0CA
:100FA000E9FD804629484168404602F0E0FD2749B6
:100FB00048602F4801682D48006802F0DBFD80463C
:100FC00022488168404602F0D2FD204988602948C5
:100FD00001682648006802F0CDFD80461B48C168C4
:100FE000404602F0C4FD1949C8601B4801681E480C
:100FF000006802F0BFFD804613480168404602F0D9
:1010000061FD11490860144801681848006802F041
:10101000B1FD80460A480168404602F053FD084988
:10102000086008460168204602F09EFD12490860EB
:10103000054800682860084600683060BDE8F08711
:10104000B80000200AD7233CB0000020A0000020F8
:101050006F12033BB8010020BC000020C00000203C
:10106000C4000020C8000020CC000020D0000020D8
:10107000D4000020D8000020B400002000B585B0C6
:101080000121880501F0CDFA0121082001F0BCFA08
:101090004FF44060ADF8000003208DF802001C20E2
:1010A0008DF8030069465B4800F006FE5A4800F0E0
:1010B0004FFF0020ADF808004BF6FF70ADF80A00B6
:1010C0003020ADF80C004FF48060ADF80E00000148
:1010D000ADF810005148019001214F4800F0CFFFBA
:1010E00001A94D4800F04DFF01214B4801F003F8E4
:1010F00005B000BD2DE9F05F04460D4616461F46BB
:10110000DDF828804FF0010BDA4678E001214248F3
:1011100000F0D9FF00BF42493F4801F0B0F8002875
:10112000F9D0002239463C4801F023F800BF3D4980
:10113000394801F0A4F80028F9D03146364801F0CA
:1011400012F800BF3749891C334801F098F800288D
:10115000F8D0B8F1000F1AD1A9464FF0000B0AE001
:1011600014F8011B2C4800F0FEFF00BF2D49891C1C
:10117000294801F084F85FEA0900A9F1010101F0B2
:10118000FF09EDD10121244800F0A9FF37E001213A
:10119000214800F098FF00BF21491F4801F06FF877
:1011A0000028F9D0012239461B4800F0E2FF00BFB9
:1011B0001B49491C184801F062F80028F8D018E0D3
:1011C000012D07D10021144800F095FF012112489C
:1011D00000F085FF00BF12493F310F4801F04FF882
:1011E0000028F8D00C4800F0C0FF2070641C681E76
:1011F000C5B2002DE4D10121074800F07CFF5FEA71
:101200000A00AAF1010101F0FF0A7FF47FAFBDE8F7
:10121000F09F0000000C014000580040400D03000A
:1012200001000300820007001CB50020019002208D
:1012300001900020D02337220121009001A8FFF760
:1012400059FF00200190D0236A220121009001A8BB
:10125000FFF750FF00200190D0236B220121009066
:1012600001A8FFF747FF00200190D0236C22012145
:10127000009001A8FFF73EFF062001900020D02338
:101280001A220121009001A8FFF734FF18200190D5
:101290000020D0231B220121009001A8FFF72AFF84
:1012A000082001900020D0231C220121009001A8D9
:1012B000FFF720FF1CBD2DE9F04786B004460D4620
:1012C00016461F46DDE90F9ADDF838800120D0234D
:1012D0003B220E21009002A8FFF70CFF9DF8091099
:1012E0009DF8080001EB002000B238809DF80B103B
:1012F0009DF80A0001EB002000B2A8F800009DF85C
:101300000D109DF80C0001EB002000B2A9F80000C0
:101310009DF80F109DF80E0001EB002000B2AAF816
:1013200000009DF811109DF8100001EB002000B2A4
:1013300020809DF813109DF8120001EB002000B2F0
:1013400028809DF815109DF8140001EB002000B2D4
:10135000308006B0BDE8F0871FB51D208DF8000075
:1013600000208DF8010001208DF802008DF80300A7
:10137000684600F04AFB0121022001F052F941F6D3
:101380001F40ADF808000420ADF804000020ADF8BF
:101390000A00ADF8060001A9064801F071FA012122
:1013A000044801F0C9FD01221146024801F0DFFDA9
:1013B0001FBD00000004004000B587B04FF4A060DE
:1013C00000F01EFB26208DF8040002208DF8050099
:1013D00000208DF8060001208DF8070001A800F01C
:1013E00014FB012144F2040001F00EF9012148042C
:1013F00001F017F94FF40170ADF8180018208DF8BE
:101400001B0003208DF81A0006A9C94800F054FCFF
:101410004FF48160ADF8180004208DF81B0006A978
:10142000C34800F049FC4FF4165002900020ADF87C
:101430000C00ADF80E00ADF81000ADF814000C2053
:10144000ADF8120002A9BB4802F097F84FF416500D
:1014500002900020ADF80C00ADF80E00ADF81000C1
:10146000ADF814000C20ADF8120002A9B24802F049
:1014700084F8012240F22551AE4802F016F901220B
:1014800040F22551AC4802F010F90121A94802F0C0
:1014900000F90121A84802F0FCF807B000BD70B5C2
:1014A00004460D462946204602F060F900BF40215F
:1014B000204602F0C9F90028F9D070BD70B5054684
:1014C0000C460BE02188284602F050F9A41C00BF0E
:1014D0004021284602F0B8F90028F9D020880028D9
:1014E000F0D170BD70B505460C460BE0217828465A
:1014F00002F03CF9641C00BF4021284602F0A4F928
:101500000028F9D020780028F0D10D212846FFF7D7
:10151000C6FF0A212846FFF7C2FF70BD70B5064618
:101520000C4615460BE02178304602F01FF9641C8A
:1015300000BF4021304602F087F90028F9D020781A
:101540000028F0D10BE02978304602F00FF96D1C2D
:1015500000BF4021304602F077F90028F9D0287802
:101560000028F0D10D213046FFF799FF0A213046BF
:10157000FFF795FF70BD2DE9F04107460C46154673
:1015800000260DE02178384602F0F0F8641C00BF18
:101590004021384602F058F90028F9D0701CC6B234
:1015A000AE42EFDBBDE8F08170B504460D46E1B216
:1015B000604802F0DBF800BF40215E4802F044F9C9
:1015C0000128F9D1204670BDF0B503460D461646F8
:1015D000002729460A2E03D0002008702846F0BDB7
:1015E00033B9302001F8010B002008702846F6E7D7
:1015F000002B03DA2D2001F8010B5B4242F210723E
:101600000DE093FBF2F404B937B104F1300001F8B6
:10161000010B04FB123301270A2092FBF0F2002A8F
:10162000EFDC002008702846D9E70FB470B586B00B
:1016300006460CA8019073E00B9800785C281CD13A
:101640000B98401C0B9000786E2809D072280FD19F
:101650000D21304602F08AF80B98401C0B900BE0ED
:101660000A21304602F082F80B98401C0B9003E0F0
:101670000B98401C0B9000BF4BE00B98007825287E
:1016800040D10B98401C0B900078642818D0732828
:1016900033D1019810C801900BE02178304602F058
:1016A00065F800BF4021304602F0CEF80028F9D09E
:1016B000641C20780028F0D10B98401C0B9020E08F
:1016C000019820C801900A2202A92846FFF77CFF52
:1016D00002AC0BE02178304602F048F800BF402110
:1016E000304602F0B1F80028F9D0641C20780028B8
:1016F000F0D10B98401C0B9003E00B98401C0B9012
:1017000000BF06E00B9810F8011B0B90304602F06A
:101710002DF800BF4021304602F096F80028F9D09D
:101720000B980078002887D106B070BC5DF814FBD8
:1017300000080140003801400044004008B5012184
:10174000042000F061FF4FF40860ADF800001020A5
:101750008DF8030003208DF802006946034800F06D
:10176000ABFA8021014800F052FB08BD000801409F
:1017700010B504466FF0040000F092F9E11704EB95
:101780005171C910224A11701046007800EB4001D7
:10179000C1EBC0104FF6FF7101EAC0001D4908807F
:1017A00010BD01461B4A12884A434FF0E0235A619C
:1017B00000229A6101221A6100BF4FF0E0221069F5
:1017C00010F0010F02D010F4803FF6D000224FF04D
:1017D000E0231A619A61704701460D4A12784A4324
:1017E0004FF0E0235A6100229A6101221A6100BF82
:1017F0004FF0E022106910F0010F02D010F4803F8A
:10180000F6D000224FF0E0231A619A617047000081
:10181000DC000020DE00002008B54FF4C06000F0BE
:10182000EFF828208DF8000000208DF801008DF8D9
:10183000020001208DF80300684600F0E6F808BDBC
:101840000EB50121092000F0DFFE4FF48040ADF815
:10185000080003208DF80A0010208DF80B0002A963
:10186000414800F029FA4FF480413F4800F0D1FA96
:101870004FF40050ADF8080003208DF80A0028202E
:101880008DF80B0002A9384800F016FAFFF7C4FFE4
:101890000D21012000F024FB4FF4005000900020A7
:1018A0008DF8040008208DF8050001208DF8060051
:1018B000684600F021F90EBD10B504464C2C16D038
:1018C0004D2C02D0522C36D123E00120274908703C
:1018D000274800780978884208D0012025490870F7
:1018E0000020254908700320FEF79CFC23E002201D
:1018F0001E4908701E4800780978884208D00120E7
:101900001C49087000201C4908700420FEF78AFC5E
:1019100011E00320154908701548007809788842BD
:1019200008D00120134908700020134908700220D4
:10193000FEF778FC00BF00BF0C4800780C49087027
:101940004FF48041084800F062FA1420FFF744FF8A
:101950004FF48041044800F05CFA0848006840F405
:1019600000500649086010BD000C01402400002012
:10197000E00000205A0000205B000020000401402D
:1019800008B54FF4E06000F03BF819208DF8000036
:1019900000208DF8010003208DF8020001208DF851
:1019A0000300684600F031F808BD0EB50121C802F9
:1019B00000F02AFE114800F08FFE45F6C050ADF849
:1019C00004004720ADF800000020ADF80600ADF897
:1019D00002006946094800F053FFFFF7D1FF0121DB
:1019E000064801F06FFD01221146044801F0BFFADC
:1019F0000021024801F0A0FA0EBD0000002C0140B9
:101A000031490143314A1160704770B5002100230C
:101A10000F22C4780CB32D4C246804F4E064C4F5A0
:101A2000E064210AC1F10403CA40447804FA03F1D6
:101A30008478144021430901254C0678A155047887
:101A400004F01F050124AC4005786D114FF0E0262D
:101A500006EB8505C5F8004109E0047804F01F0590
:101A60000124AC401B4D0678761145F8264070BD28
:101A7000194A0A400243154B1B1F1A60704739B1BF
:101A8000124A121D12680243104B1B1D1A6006E019
:101A90000E4A121D126882430C4B1B1D1A607047C0
:101AA000042808D14FF0E021096941F004014FF00A
:101AB000E022116107E04FF0E021096921F0040103
:101AC0004FF0E022116170470000FA050CED00E0D4
:101AD00000E400E080E100E080FFFF1F00204449B7
:101AE0000860091D0860091D0860091D086041485B
:101AF0003F4914310860704700213D498279002A2E
:101B00003AD00A46126803689A430B461A600A1DC7
:101B1000126803689A430B1D1A60027911440A681F
:101B200003681A430A60324A0832126803689A430B
:101B30002F4B08331A601A1D126803689A432C4B06
:101B40000C331A604279102A0ED11A1F12680368EA
:101B50001A43274B08331A601A1D126803681A4388
:101B6000234B0C331A600DE02149427911440A6875
:101B700003681A430A6005E0027911440A680368A1
:101B80009A430A6070470021016001710C21417184
:101B90000021817170471649103109680143144AC8
:101BA00010321160704701460020114A1432126849
:101BB0000A4201D0012000E0002070470C49143196
:101BC00008607047014600200022094B1B6803EAA9
:101BD0000102074B14331B680B4202D00AB10120EB
:101BE00000E000207047024914310860704700008F
:101BF00000040140FFFF0F0010B50446CA488442AC
:101C000008D10121042000F019FD0021042000F07A
:101C100015FD46E0C548844208D10121082000F0A6
:101C20000DFD0021082000F009FD3AE0C048844283
:101C300008D10121102000F001FD0021102000F04A
:101C4000FDFC2EE0BB48844208D10121202000F099
:101C5000F5FC0021202000F0F1FC22E0B64884428F
:101C600008D10121402000F0E9FC0021402000F0D3
:101C7000E5FC16E0B148844208D10121802000F043
:101C8000DDFC0021802000F0D9FC0AE0AC48844251
:101C900007D10121801500F0D1FC0021A01500F032
:101CA000CDFC10BD10B50121084600F0C7FC002195
:101CB000012000F0C3FC10BD2DE9F04102460025D3
:101CC0000026002000230024002791F803C00CF018
:101CD0000F0591F803C01CF0100F03D091F802C05B
:101CE0004CEA050591F800C0BCF1000F31D0146832
:101CF00000202BE04FF0010C0CFA00F3B1F800C00B
:101D00000CEA03069E4220D183004FF00F0C0CFA20
:101D100003F7BC4305FA03FC4CEA040491F803C042
:101D2000BCF1280F06D14FF0010C0CFA00FCC2F8F0
:101D300014C00AE091F803C0BCF1480F05D14FF080
:101D4000010C0CFA00FCC2F810C0401C0828D1D3CA
:101D50001460B1F800C0BCF1FF0F34DD54680020FE
:101D60002EE000F1080C4FF0010808FA0CF3B1F86E
:101D700000C00CEA03069E4221D183004FF00F0CF5
:101D80000CFA03F7BC4305FA03FC4CEA040491F88F
:101D900003C0BCF1280F05D100F1080C08FA0CF8BB
:101DA000C2F8148091F803C0BCF1480F07D100F1CC
:101DB000080C4FF0010808FA0CF8C2F81080401C1B
:101DC0000828CED35460BDE8F0814FF6FF71018042
:101DD000022181700421C17070470246002093687F
:101DE0000B4201D0012000E00020704701468868C6
:101DF00080B2704702460020D3680B4201D0012018
:101E000000E0002070470146C86880B27047016159
:101E10007047416170470AB1016100E0416170475C
:101E2000C16070474FF480320A43826181618261F0
:101E300082698269704702460020424B18684FF65B
:101E40008073184040EA021008433E4B1860704708
:101E50003D49C8617047F0B50A46002300240021BF
:101E6000002500F00046B6F1004F02D1354EF16971
:101E700001E0344E7168C0F3034583B200F44016AC
:101E8000B6F5401F08D121F070612E4E766826F01D
:101E900070662C4F7E6012E000F48016B6F5801F4D
:101EA00006D1032606FA05F4A14341F0706106E06D
:101EB000460D360103FA06F6B14341F0706122B1D6
:101EC000460D360103FA06F6314300F00046B6F13E
:101ED000004F02D11B4EF16101E01A4E7160F0BD5E
:101EE00030B500228B071C0F0F2303FA04F2154BA9
:101EF00008338C1053F824309343124C08348D105F
:101F000044F8253023468C1053F824308C07240FD6
:101F100000FA04F423430B4C08348D1044F82530A8
:101F200030BD0A490860704700080140000C0140BC
:101F3000001001400014014000180140001C014045
:101F4000002001400000014000002042DC0020424F
:101F500010B50446F548844209D10121480500F036
:101F60007AFB00214FF4001000F075FB08E001211E
:101F7000880500F070FB00214FF4800000F06BFB3F
:101F800010BD2DE9F04385B004460D460026B1464C
:101F90000427DFF89C83A6884FF6C0700640684689
:101FA00000F0C5FADDF80880E248B8FBF0F01FFA4F
:101FB00080F946EA0906A68020884FF6FE7108409F
:101FC00020800026DC49286888420CD82868400018
:101FD000B8FBF0F087B2042F00DA04273E4309F182
:101FE0000100208427E0E888A0F53F41FF3906D1B1
:101FF000286800EB4000B8FBF0F087B209E02868E1
:1020000000EBC00101EB0010B8FBF0F087B247F421
:1020100080473805000D01D147F0010747F4004023
:1020200006434FF4967009FB00F04FF47A7190FB71
:10203000F1F0401C2084A683208840F0010020801D
:1020400026884FF6F5300640A8886989084306437C
:102050002680A88929890843208105B0BDE8F0833E
:1020600041F288310160002181804BF6FF71C1800F
:102070000021018141814FF480418181704721B16C
:10208000028842F00102028004E002884FF6FE73EB
:102090001A400280704721B1828842F40062828037
:1020A00004E082884FF2FF731A408280704721B1AA
:1020B000828842F48052828004E082884EF6FF7368
:1020C0001A408280704721B1028842F480720280F7
:1020D00004E002884FF6FF631A400280704721B186
:1020E000028842F40072028004E002884FF6FF5337
:1020F0001A400280704721B1028842F48062028057
:1021000004E002884FF6FF331A40028070470A4607
:10211000002181894FF60173194002F0FE03194333
:102120008181704721B1828942F00102828104E0FD
:1021300082894FF6FE731A408281704721B102886E
:1021400042F04002028004E002884FF6BF731A405A
:10215000028070471AB183880B43838002E0838832
:102160008B4383807047018270470146088AC0B262
:10217000704712B141F0010102E04FF6FE731940C1
:10218000018270470246002313460B4418887047AB
:1021900021B1028842F40042028003E00288C2F3C7
:1021A0000E0202807047B1F5006F04D1028842F43C
:1021B0000062028004E002884FF2FF731A4002803E
:1021C0007047B1F5005F04D1028842F400520280EA
:1021D00004E002884DF6FF731A400280704721B177
:1021E000028842F48052028004E002884EF6FF73B7
:1021F0001A4002807047B1F5006F04D1028842F4A2
:102200000062028004E002884FF2FF731A400280ED
:10221000704721B1028842F02002028004E0028867
:102220004FF6DF731A40028070470146088B001298
:10223000704721B1028842F01002028004E0028857
:102240004FF6EF731A400280704721B9028842F0BE
:102250008002028004E002884FF67F731A400280F9
:102260007047B1F5804F05D0828B4BF6FF731A4053
:10227000828303E0828B42F480428283704770B590
:1022800002460024002500230020958A138B1B049E
:1022900045EA030626F07F4404EA01068E4201D196
:1022A000012000E0002070BD10B501460020002391
:1022B00000228B8A0A8B120443EA020424F07F4036
:1022C00010BD30B503460020002400221A460C0F32
:1022D00021F07F410CB1143201E0090C183215686D
:1022E0000D4201D0012000E0002030BD002221F08D
:1022F0007F42D3438382704730B5024600200023DB
:10230000948801F0E06504EA154321F07F41948A46
:102310000C4202D00BB1012000E0002030BD0022B1
:1023200021F07F42D3438382704700000054004075
:1023300000127A0040420F00A0860100DB480068CE
:1023400040F00100D949086008464068D849084073
:10235000D649486008460068D6490840D349086015
:102360000846006820F4802008600846406820F491
:10237000FE0048604FF41F0088607047CB49096831
:1023800021F48031C94A11601146096821F4802185
:102390001160B0F5803F03D0B0F5802F0ED106E07C
:1023A000C249096841F48031C04A116007E0BF4961
:1023B000096841F4A021BD4A116000E000BF00BFE0
:1023C000704710B501460022002300204A11012A5F
:1023D00002D1B64C236806E0022A02D1B34C236A2C
:1023E00001E0B24C636A01F01F02012494401C42D8
:1023F00001D0012000E0002010BD70B500240025B0
:10240000002600BF3120FFF7DCFF0646641CB4F550
:10241000A06F01D0002EF5D03120FFF7D2FF08B118
:10242000012500E00025284670BD014600209F4A96
:10243000106820F0F80040EAC100106070479E4923
:102440000860704702460020984B586820F47C10C2
:1024500042EA01031843954B586070479649086655
:10246000704701460020914A506820F0030008435D
:10247000506070478D48406800F00C00704701467E
:1024800000208A4A506820F0F000084350607047EE
:1024900001460020854A506820F4E06008435060FF
:1024A000704701460020814A506820F4605040EA9D
:1024B000C1005060704729B17C4A527A02437B4B7D
:1024C0005A7204E0794A527A8243784B5A727047C2
:1024D0007A490860704701460020744A506820F429
:1024E00040400843506070470021754A11706F4AA0
:1024F00082F82010012802D0042808D103E001212D
:102500006F4A117004E005216D4A117000E000BFB0
:1025100000BF70476B49086070476449096A01430E
:10252000624A11627047674944390860704730B5A4
:1025300000210022002400235C4D6D6805F00C0191
:1025400021B1042905D0082923D105E05E4D05609D
:1025500022E05D4D05601FE0544D6D6805F470127A
:10256000524D6D6805F48034022505EB92421CB98A
:10257000564D554305600BE04C4D6D6815F4003F1A
:1025800003D0524D5543056002E04F4D5543056061
:1025900002E04D4D056000BF00BF444D6D6805F081
:1025A000F00109094A4D6B5C0568DD4045603F4D0F
:1025B0006D6805F4E061090A454D6B5C4568DD40D6
:1025C00085603A4D6D6805F46051C90A404D6B5CF9
:1025D0004568DD40C560354D6D6805F44041890BA7
:1025E0003C4D6B5CC568B5FBF3F5056130BD29B1A9
:1025F0002E4A526902432D4B5A6104E02B4A52691C
:1026000082432A4B5A61704729B1284A9269024392
:10261000264B9A6104E0254A92698243234B9A61D2
:10262000704729B1214AD2690243204BDA6104E0A4
:102630001E4AD26982431D4BDA61704729B11B4A99
:10264000D2680243194BDA6004E0184AD268824328
:10265000164BDA60704729B1144A12690243134BD2
:102660001A6104E0114A12698243104B1A617047E3
:1026700014494039086070470F49C86470470B49D6
:10268000C87170470948406A40F080700749486245
:10269000704701460020054A92680A4201D0012095
:1026A00000E0002070470149887270470010024026
:1026B0000000FFF8FFFFF6FE00004242D800424251
:1026C000201002408004424200127A0000093D00BE
:1026D000E1000020F100002010B50446FE488442CD
:1026E00008D10121C014FFF7A9FF0021E014FFF772
:1026F000A5FFC4E0B4F1804F08D101210846FFF7DF
:10270000AAFF00210120FFF7A6FFB8E0F3488442AA
:1027100008D101210220FFF79EFF00210220FFF7D0
:102720009AFFACE0EE48844208D101210420FFF773
:1027300092FF00210420FFF78EFFA0E0E9488442C9
:1027400008D101210820FFF786FF00210820FFF7AC
:1027500082FF94E0E448844208D101211020FFF771
:102760007AFF00211020FFF776FF88E0DF488442DF
:1027700008D101212020FFF76EFF00212020FFF764
:102780006AFF7CE0DA48844208D101214014FFF757
:1027900055FF00216014FFF751FF70E0D5488442D7
:1027A00009D10121C804FFF749FF00214FF400209F
:1027B000FFF744FF63E0D048844209D101210805B6
:1027C000FFF73CFF00214FF48010FFF737FF56E082
:1027D000CA48844209D101214805FFF72FFF002193
:1027E0004FF40010FFF72AFF49E0C548844208D1A2
:1027F00001214020FFF72FFF00214020FFF72BFF92
:102800003DE0C048844208D101218020FFF723FF2A
:1028100000218020FFF71FFF31E0BB48844208D130
:1028200001218015FFF717FF0021A015FFF713FF07
:1028300025E0B648844209D101210804FFF7FEFED5
:1028400000214FF48030FFF7F9FE18E0B0488442D1
:1028500009D101214804FFF7F1FE00214FF40030B7
:10286000FFF7ECFE0BE0AB48844208D1012188045D
:10287000FFF7E4FE00214FF48020FFF7DFFE10BDDC
:1028800000220288944B98420ED0994B98420BD06C
:10289000B0F1804F08D0914B984205D0904B9842B0
:1028A00002D0904B984204D14FF68F731A404B8858
:1028B0001A438D4B984207D08C4B984204D04FF668
:1028C000FF431A40CB881A4302808B8883850B888C
:1028D0000385814B98420BD0854B984208D08B4B97
:1028E000984205D08A4B984202D08A4B984201D137
:1028F0000B7A038601238382704770B5002400227F
:102900000023058C4FF6FE7635400584028C8388C3
:10291000048B4FF68F752C40B51E2C400D882C4330
:10292000751E2A400D892A434D882A436A4DA842C4
:102930000BD06F4DA84208D0744DA84205D0744DFD
:10294000A84202D0734DA84213D14FF6F7752A4022
:102950004D892A434FF6FB752A408D882A434FF64E
:10296000FF652B404FF6FF552B408D892B43CD89BA
:102970002B4383800483CD888586028470BD70B527
:10298000002400220023058C4FF6EF7635400584A5
:10299000028C8388048B48F6FF752C404FF6FF4568
:1029A0002C400D884FF6FF7606EA05252C434FF69E
:1029B000DF752A400D8906EA05152A434D8806EA87
:1029C00005152A43444DA84202D0494DA8421DD1C5
:1029D0004FF67F752A404D894FF6FF7606EA0515BA
:1029E0002A434FF6BF752A408D8806EA05152A430B
:1029F0004FF6FF352B404FF2FF752B408D8906EACD
:102A000085052B43CD8906EA85052B438380048306
:102A1000CD880587028470BD70B500240022002394
:102A2000058C4FF6FF6635400584028C8388848BC5
:102A30004FF68F752C404FF6FC752C400D882C43BB
:102A40004FF6FF552A400D894FF6FF7606EA052519
:102A50002A434D8806EA05252A431F4DA84202D085
:102A6000234DA8421DD14FF2FF752A404D894FF6E4
:102A7000FF7606EA05252A434FF6FF352A408D8862
:102A800006EA05252A434EF6FF752B404DF6FF75E5
:102A90002B408D8906EA05152B43CD8906EA0515DD
:102AA0002B4383808483CD888587028470BD70B575
:102AB000002200230024058C4EF6FF763540058465
:102AC000038C8488828B48F6FF752A404FF6FF45B9
:102AD0002A400D8820E00000002C01400004004046
:102AE00000080040000C00400010004000140040AE
:102AF00000340140004C01400050014000540140AE
:102B000000180040001C0040002000400040014030
:102B100000440140004801404FF6FF7606EA0525D3
:102B20002A434DF6FF752B400D8906EA05352B43E8
:102B30004D8806EA05352B43FA4DA84202D0FA4DDE
:102B4000A84208D14BF6FF752C408D894FF6FF76D1
:102B500006EA85152C4384808283CD88A0F84050F6
:102B6000038470BD828B4FF2FF331A408283828BC5
:102B70004FF6FF7303EA01231A4382837047F0B5CF
:102B80000C461546002200210026078C4EF6FF7CDD
:102B900007EA0C070784828B018C4FF6FF7707EA60
:102BA000043640F6FF473A404FF6FF7707EA05271D
:102BB0003A434FF6FF7707EA03373A43D94FB84213
:102BC0000ED0D94FB8420BD0B0F1804F08D0D74FBC
:102BD000B84205D0D64FB84202D0D64FB84206D13F
:102BE0004DF6FF77394046F48057394305E047F604
:102BF000FF57394044F48057394382830184F0BD44
:102C0000828B4FF6F3731A408283828B0A4382834E
:102C10007047F0B50C461546002200210026078CAF
:102C20004FF6FF6C07EA0C070784828B018C4FF686
:102C3000FF7707EA04264FF60C773A404FF6FF7706
:102C400007EA03172F433A43B64FB8420ED0B64FA8
:102C5000B8420BD0B0F1804F08D0B44FB84205D085
:102C6000B34FB84202D0B34FB84206D14FF6FF5728
:102C7000394046F48077394305E04FF2FF57394039
:102C800044F48077394382830184F0BD028B4FF294
:102C9000FF331A400283028B4FF6FF7303EA0123CE
:102CA0001A4302837047F0B50C46154600220021F6
:102CB0000026078C4FF6EF7C07EA0C070784028B8F
:102CC000018C4FF6FF7707EA041640F6FF473A40BB
:102CD0004FF6FF7707EA03373A434FF6FF7707EAE5
:102CE00005273A438F4FB8420ED08F4FB8420BD0D2
:102CF000B0F1804F08D08D4FB84205D08C4FB8420C
:102D000002D08C4FB84206D14FF6DF77394046F0FB
:102D10001007394305E04FF65F77394044F010075C
:102D2000394302830184F0BD028B4FF6F3731A40DE
:102D30000283028B0A4302837047F0B50C461546A6
:102D400000220021068C4FF6FE773E400684028B5F
:102D5000018C4FF60C7632407E1C06EA03162E4399
:102D60003243704EB0420ED06F4EB0420BD0B0F135
:102D7000804F08D06D4EB04205D06D4EB04202D0AB
:102D80006C4EB04206D14FF6FD76314044F001065C
:102D9000314305E04FF6F576314044F0010631430A
:102DA00002830184F0BD70B505460C465D4885423E
:102DB0000ED05D4885420BD0B5F1804F08D05B48FE
:102DC000854205D05A48854202D05A48854200D1F2
:102DD00000E000BF208850B92389A2886188284676
:102DE000FFF7ABFFE1882846FFF79EFF25E020882C
:102DF00004280AD12389A28861882846FFF753FF57
:102E0000E1882846FFF742FF17E0208808280AD10A
:102E10002389A28861882846FFF7FBFEE1882846BF
:102E2000FFF7EEFE09E02389A28861882846FFF7B4
:102E3000A6FEE1882846FFF795FE70BD2DE9F0411A
:102E400005460C4600260127608808B9022600E0E6
:102E50000026A088012801D1022700E00127208850
:102E6000A0B92389A28861882846FFF766FFE18818
:102E70002846FFF759FF23893A4631462846FFF78F
:102E800012FFE1882846FFF701FF13E02389A2889B
:102E900061882846FFF707FFE1882846FFF7F6FE1E
:102EA00023893A4631462846FFF747FFE1882846FE
:102EB000FFF73AFFBDE8F0810A884B881A438B88F8
:102EC0001A43CB881A430B891A434B891A438B89BF
:102ED0001A43A0F8442070474FF6FF71818000210B
:102EE0000180C180418001727047002101804180D2
:102EF0008180C180018141818181C1817047002130
:102F000001804180012181800021C18001817047C1
:102F10000021018041808180C180018141818181C6
:102F200070470000002C01400034014000040040C4
:102F300000080040000C004021B1028842F001026C
:102F4000028004E002884FF6FE731A400280704748
:102F500031B1B0F8442042F40042A0F8442005E02A
:102F6000B0F84420C2F30E02A0F8442070471AB112
:102F700083890B43838102E083898B43838170477C
:102F80008182704741EA0203A0F8483070471AB1C5
:102F900083890B43838102E083898B43838170475C
:102FA00001894FF6F8721140018170470A460021ED
:102FB00001894FF68F73194011430181704730B575
:102FC00004460D4629462046FFF7F0FF208940F0D1
:102FD0000700208130BD2DE9F04104460D4616461C
:102FE0001F46602D06D13B46012231462046FFF7A1
:102FF0005AFE05E03B46012231462046FFF79DFE82
:1030000029462046FFF7D2FF208940F007002081A3
:10301000BDE8F08130B50C4600210189C9B24FF6F8
:10302000FF7505EA0325154325432943018130BD7A
:103030002DE9F04105460E461746984600244346C2
:103040003A4631462846FFF7E5FF2C894FF6F870DF
:10305000044044F007044FF68F70044044F07004BD
:103060002C81BDE8F081F0B504460D4616461F469A
:103070003B46324629462046FFF7CCFF208940F4E4
:1030800080402081F0BD0185828270470A46002180
:1030900001884FF68F731940114301807047F0B5D6
:1030A0000C4615461E460021002200230189028B92
:1030B000038C4FF6F877394021434FF6FC473A40EE
:1030C00040F201173A434FF6DD773B404FF6FF776A
:1030D00007EA06172F433B43018102830384F0BDB7
:1030E0000A460021018B4FF68F731940114301836B
:1030F00070470A460021018B48F6FF7319404FF6CE
:10310000FF7303EA02231943018370470A46002133
:10311000818B4FF68F7319401143818370470A46A4
:103120000021818B48F6FF7319404FF6FF7303EAC5
:10313000022319438183704721B1028842F0800243
:10314000028004E002884FF67F731A4002807047C5
:1031500021B1828842F00402828004E082884FF626
:10316000FB731A408280704721B1828842F00802C6
:10317000828004E082884FF6F7731A40828070479D
:1031800021B1828842F00102828004E082884FF6F9
:10319000FE731A40828070470A460021018B4FF669
:1031A000F77319401143018370470A460021018BD0
:1031B0004FF2FF7319404FF6FF7303EA02231943DE
:1031C000018370470A460021818B4FF6F77319403F
:1031D0001143818370470A460021818B4FF2FF73B0
:1031E00019404FF6FF7303EA0223194381837047A6
:1031F0000A460021018B4FF6FB73194011430183EE
:1032000070470A460021018B4FF6FF3319404FF6F5
:10321000FF7303EA02231943018370470A46002122
:10322000818B4FF6FB7319401143818370470A4627
:103230000021818B4FF6FF3319404FF6FF7303EAED
:1032400002231943818370470A460021018B4FF600
:103250007F7319401143018370470A460021018B97
:10326000C1F30E014FF6FF7303EA022319430183F2
:1032700070470A460021818B4FF67F731940114336
:10328000818370470A460021818BC1F30E014FF6FE
:10329000FF7303EA02231943818370470A46002122
:1032A000018C4FF6FD7319401143018470470A46A3
:1032B0000021018C4FF6F7731940114301847047C8
:1032C0000A460021018C4FF6DF7319404FF6FF7359
:1032D00003EA02131943018470470A460021018C56
:1032E0004FF67F7319404FF6FF7303EA0213194339
:1032F000018470470A460021018C4FF6FF531940A4
:103300004FF6FF7303EA02231943018470470A460C
:103310000021018C4FF2FF7319404FF6FF7303EA4F
:1033200002231943018470470A460021018C4DF69F
:10333000FF7319404FF6FF7303EA02331943018408
:10334000704730B5002301248C40A3B2048C9C4309
:103350000484048C02FA01F5ADB22C43048430BD20
:1033600030B5002304248C40A3B2048C9C43048415
:10337000048C02FA01F5ADB22C43048430BD70B563
:103380000346002000241846183001258D40ACB2B9
:103390001D8CA5431D8409B1082909D100EB6100EA
:1033A000056825F0700505600568154305600EE0A9
:1033B0000D1FC5F34E052844056825F4E04505605A
:1033C00005684FF6FF7606EA02263543056070BDB4
:1033D00021B1028842F00202028004E002884FF626
:1033E000FD731A400280704721B1028842F0040246
:1033F000028004E002884FF6FB731A400280704797
:1034000021B1828842F08002828004E082884FF6F7
:103410007F731A408280704702884FF6F7731A4014
:10342000028002880A430280704782884FF68F73B9
:103430001A40828082880A438280704702894FF650
:10344000F8731A40028102890A4302817047028997
:103450004FF67F731A40028102890A430281704746
:1034600081847047818570478186704701877047E6
:1034700081877047A0F84010704702884FF6FF43DD
:103480001A40028002880A43028070470146888EF3
:1034900070470146088F70470146888F7047014684
:1034A000B1F8400070470146888C70470146088D8E
:1034B000704702460020138A0B4201D0012000E031
:1034C00000207047CA430282704730B50246002090
:1034D00000230024158A05EA0103958905EA010401
:1034E00013B10CB1012000E0002030BDCA430282BC
:1034F0007047000010B50446FB48844209D1012101
:103500008803FFF79BF800214FF48040FFF796F8FF
:1035100032E0F648844209D101214804FFF79BF8C4
:1035200000214FF40030FFF796F825E0F048844280
:1035300009D101218804FFF78EF800214FF4802083
:10354000FFF789F818E0EB48844209D10121C8044B
:10355000FFF781F800214FF40020FFF77CF80BE023
:10356000E548844208D101210805FFF774F80021DD
:103570004FF48010FFF76FF810BD2DE9F04786B0CB
:1035800005460E460024A24600BFA1460027B0898A
:1035900000B100BF2F462C8A4CF6FF700440F08823
:1035A00004432C82AC894EF6F3100440B088318974
:1035B0000843718908430443AC81AC8A4FF6FF404D
:1035C0000440B0890443AC8201A8FEF7B0FFC648AE
:1035D000874202D1DDF810A001E0DDF80CA0A88937
:1035E00010F4004F08D00AEBCA0000EB0A10316853
:1035F0004900B0FBF1F807E00AEBCA0000EB0A1043
:1036000031688900B0FBF1F86420B8FBF0F00401E8
:103610002009642101FB1089A88910F4004F08D00B
:10362000322000EBC900B0FBF1F000F007000443CA
:1036300008E0322000EB09106421B0FBF1F000F04B
:103640000F0004432C8106B0BDE8F0874FF41651FB
:10365000016000218180C18001810C214181002114
:103660008181704710B502460020108A4FF2FF0397
:1036700018400B884C8823438C882343CC882343F1
:103680001843108210BD0021018041808180C180DB
:10369000704721B1828942F40052828104E082891C
:1036A0004DF6FF731A4082817047F0B5034600243F
:1036B000002600250020A1F510676A3F00D100BF59
:1036C0001846C1F3421401F01F06012707FA06F558
:1036D000012C01D10C3004E0022C01D1103000E0AB
:1036E00014301AB107682F43076002E00768AF4340
:1036F0000760F0BD1AB1838A0B43838202E0838A9C
:103700008B4383827047028A4FF6F0731A4002821D
:10371000028A0A430282704782894FF2FF731A407D
:10372000828182890A438281704721B1828942F075
:103730000202828104E082894FF6FD731A40828181
:103740007047028A4FF6DF731A400282028A0A43E8
:103750000282704721B1028A42F48042028204E070
:10376000028A4BF6FF731A4002827047C1F30802C7
:103770008280704701468888C0F3080070478189BD
:1037800041F0010181817047028BD2B20283028B2A
:1037900042EA012202837047028B02F47F420283D5
:1037A000028B0A430283704721B1828A42F02002D1
:1037B000828204E0828A4FF6DF731A408282704769
:1037C00021B1828A42F01002828204E0828A4FF69E
:1037D000EF731A408282704721B1828A42F0080258
:1037E000828204E0828A4FF6F7731A408282704721
:1037F00021B1828942F40042828103E08289C2F3CE
:103800000E028281704721B1828A42F40062828274
:1038100004E0828A4FF2FF731A4082827047828AE4
:103820004FF6FB731A408282828A0A438282704773
:1038300021B1828A42F00202828204E0828A4FF63B
:10384000FD731A408282704702460020B1F5007F66
:1038500000D100BF13880B4201D0012000E00020FE
:10386000704701F40072B2F5007F00D100BFCA4377
:103870000280704770B50246002400230025002016
:10388000A1F510666A3E00D100BFC1F3421501F0F8
:103890001F03012606FA03F3012D02D19689334056
:1038A00006E0022D02D1168A334001E0968A3340A9
:1038B0000C12012606FA04F41688344013B10CB138
:1038C000012000E0002070BD10B500220023A1F50A
:1038D00010646A3C00D100BF0A1201249440A3B2D4
:1038E000DC43048010BD000000380140004400406B
:1038F00000480040004C00400050004000210020E3
:10390000674A126842F48032654B1A6000BF644A0D
:10391000126802F40030491C10B9B1F5A06FF6D15D
:103920005F4A126812F4003F01D0012000E000203D
:10393000012842D15B4A126842F01002594B1A60CA
:103940001A46126822F003021A601A46126842F000
:1039500002021A60524A5268514B5A601A46526823
:103960005A601A46526842F480625A601A46526897
:1039700022F47C125A601A46526842F4E8125A60E5
:103980001A46126842F080721A6000BF444A1268F8
:1039900012F0007FFAD0424A526822F00302404BF4
:1039A0005A601A46526842F002025A6000BF3C4A0E
:1039B000526802F00C02082AF9D1704710B5FFF7DF
:1039C0009DFF10BD10B53648006840F00100344935
:1039D0000860084640683449084031494860084654
:1039E0000068324908402E4908600846006820F403
:1039F000802008600846406820F4FE0048604FF4CC
:103A00001F008860FFF7DAFF4FF000602849086068
:103A100010BD10B5002100200022214B5B6803F08F
:103A20000C0121B1042906D0082928D107E0214B37
:103A3000214C236027E01F4B1F4C236023E0184BD1
:103A40005B6803F47010164B5B6803F4803202234A
:103A500003EB904022B9194B4343174C23600DE010
:103A60000F4B5B6813F4003F04D0144B4343124CDC
:103A7000236003E00F4B43430F4C236003E00D4BE7
:103A80000D4C236000BF00BF054B5B68C3F30313FD
:103A90000B4CE15C084B1B68CB40074C236010BD0E
:103AA00000100240002002400000FFF8FFFFF6FE79
:103AB00008ED00E000127A00F800002000093D0047
:103AC000FC000020F0B480EA0102D40F4200B2EB07
:103AD000410F02D20246084611464A0042D0C30DA9
:103AE000DDB2C1F3C752AD1A202D35DAC1F316018C
:103AF00041F4000204B15242C5F1200602FA06F177
:103B00002A411044B3EBD05F23D0C4B1012DA0EB08
:103B1000C35009DCF0BC4FF0004202EAC35200F58A
:103B20000000DBB200F0D8BA400000F1807000EB7A
:103B3000C350A0F1807040EAD170490009E0490803
:103B400041EAC071A0EBC35000F50000400800EB53
:103B5000C350F0BC00F0B7BA6142012202EB410150
:103B6000001BF6E7F0BC704781F00041AAE780F047
:103B70000040A7E780EA010210B502F000434000D0
:103B800026D04A0023D04FEA106101EB1261C0F346
:103B90005600C2F3560240F4000042F40002A0FBBB
:103BA0000220A1F17F014FEA0040140401D000F18E
:103BB000010050EA124001D44000491EC2B20C0676
:103BC00004EBD010401C4008802A02D003E0002003
:103BD00010BD20F00100002900DA0020184310BDBC
:103BE00030B480EA010202F0004530F0004221F0DA
:103BF000004015D0A0B1C0F3C753C2F3C754C2F3FD
:103C00001601C0F31600E41A41F4000140F400026A
:103C10007D34914201D3641C00E04900002C02DA9B
:103C200030BC002070474FF400000023914201D3C4
:103C3000891A034340084FEA4101F7D151B191423B
:103C400002D14FF0004105E002D24FF0010101E046
:103C50006FF0010103EBC450284430BC00F033BACC
:103C60002DE9FE4F804681EA0300C00F0C4600900C
:103C700021F0004123F00045B8EB0200A94105D234
:103C80004046214690461C460B46024623F0004023
:103C9000104304D14046214603B0BDE8F08F270D04
:103CA000C7F30A00C3F30A510290401A019040285A
:103CB00066DAC3F3130040F4801B0098924620B1EB
:103CC0000023D2EB030A63EB0B0B01985946C0F1BA
:103CD0004002504600F0D6F906460D465046594679
:103CE000019A00F0DEF910EB08006141002487EA38
:103CF000115284EAE7731A433BD0009A3AB3019A0F
:103D0000012A4FEA075210DC001B61EB02014FF061
:103D1000004202EA0752CDE90042001C41F5801141
:103D200032462B4600F012FAB6E7001B61EB0201A7
:103D3000001C41F5801300185B412018A2F5001704
:103D400047EB030140EAD570B6196D4111E06D08EB
:103D50004FEA360645EAC0754FEA0752001B61EB91
:103D60000201001C41F5801149084FEA300000199A
:103D7000514132462B4603B0BDE8F04F00F0D9B9AF
:103D80000098012240000023D0EB020263EBE073B5
:103D9000009821464FEAE074B8EB000061EB0401A3
:103DA000E9E783F000435BE781F0004158E72DE944
:103DB000FE4F81EA030404F0004421F00041009426
:103DC0004FF0000B23F0004350EA010402D052EA06
:103DD000030404D10020014603B0BDE8F08FC3F313
:103DE0000A54C1F30A552C44A4F2F3340194A0FB05
:103DF0000254C1F3130141F48011C3F3130343F4DC
:103E0000801301FB024400FB034E840A970A44EA34
:103E1000815447EA8357A4FB076802958D0A05FB86
:103E200007854FEA932C04FB0C542705029D4FEAAB
:103E3000065847EA1637B5EB08056EEB070C870EF8
:103E4000920E47EA811742EA8312A7FB0201B6EB02
:103E50000B0164EB00042B0D43EA0C335E1844EBBA
:103E60001C50DA465146E7FB0201C5F313044FEA42
:103E70000B3343EA14534FEA0432019C43EA06032E
:103E8000A4F10C040294009CCDE900B400F05EF9AA
:103E9000A2E72DE9F04D81EA030404F0004B21F084
:103EA000004514464FF0000A23F0004150EA050295
:103EB00020D054EA01021DD0C5F30A570246C5F3CB
:103EC0001303C1F31300C1F30A5640F4801543F401
:103ED0008013A7EB0608101BD64608F2FD3873EBDB
:103EE000050002D308F1010801E092185B41B8F126
:103EF000000F03DA00200146BDE8F08D00204FF4EA
:103F00008011064684460EE0171B73EB050705D3A8
:103F1000121B63EB050306434CEA010C49084FEA08
:103F2000300092185B4150EA0107EDD152EA0300DC
:103F300012D082EA040083EA0501084303D100227B
:103F40004FF0004308E0101BAB4102D201220023D6
:103F500002E06FF0010253101AEB06004CEB08511F
:103F600010EB0A0041EB0B01BDE8F04D00F0E1B8A9
:103F7000C10F80EAE0700844CA079623002100F0D0
:103F8000ABB80EB5C10F80EAE0700844CA07002143
:103F900040F233438DE80E000A460B4600F0D6F897
:103FA00003B000BD00F0004220F00040C10DC0F39E
:103FB000160040F400007F2901DA0020704796299E
:103FC00003DCC1F19601C84001E096398840002A1F
:103FD000F4D04042704700F0004230F000400AD078
:103FE000C10D01F56071C0F3160042EA0151C2082B
:103FF00040071143704700200146704730B5002943
:1040000004DB4FF00044404264EB0101002B04DB71
:104010004FF00044524264EB03038B4208BF8242DC
:1040200030BD000030B5002904DB4FF000444042B1
:1040300064EB0101002B04DB4FF00044524264EBBF
:104040000303994208BF904230BD000001F00043D5
:1040500030B421F0004150EA010206D00A0DA2F569
:104060006072C1F31301002A02DC30BC00207047EB
:10407000440F44EAC104C100E01830BC00EBC25058
:1040800000F021B8202A04DB203A00FA02F10020D7
:1040900070479140C2F1200320FA03F31943904086
:1040A0007047202A06DBCB17203A41FA02F043EA98
:1040B000E07306E041FA02F3D040C2F120029140E1
:1040C0000843194670470029A8BF7047401C4900A3
:1040D00008BF20F00100704710B4B0FA80FC00FA6D
:1040E0000CF050EA010404BF10BC704749B1CCF198
:1040F000200421FA04F411FA0CF118BF0121214324
:104100000843A3EB0C01CB1D0106000A002BBEBF28
:10411000002010BC704700EBC35010440029A4BF1E
:1041200010BC7047401C490008BF20F0010010BCC3
:10413000704710B5002B08DA401C41F100019218BD
:104140005B411A4301D120F0010010BD2DE9F04D73
:1041500092469B4611B1B1FA81F202E0B0FA80F2C8
:1041600020329046FFF78EFF04460F4640EA0A00D1
:1041700041EA0B0153465A46084303D120463946CB
:10418000BDE8F08D114653EA010015D0C8F1400298
:10419000504600F0A7F805460E465046594642469E
:1041A000FFF770FF084301D0012000E00020054325
:1041B00046EAE0762C4337430A984FEA4453A0EB93
:1041C00008004FEAD4240A304FF0000244EA475472
:1041D0004FEAD72502D500200146D1E70105101985
:1041E0006941DDE9084500196941BDE8F04DA0E7E6
:1041F00070B521F0004303430CD0C1F30A550024ED
:10420000D5EB040564EB0403D617AD1AB34102DB0A
:104210000020014670BD201841EB025170BD2DE910
:10422000F04D00231A461B1A8A4103DB0020014689
:10423000BDE8F08DC1F30A52C1F3130141F48015BA
:104240004FF0000BD10702D100186D41521E00271C
:10425000044640F2FF11384601EB620A3E468046B2
:10426000024600204FF4801100F03CF8C219714161
:10427000BB1846EB0100B4EB030C75EB000C04D348
:10428000E41A65EB000517460E46241908F10100F3
:104290006D4180463428E3DDF91946EB0600091B21
:1042A000A84103D24FF0FF32134601E0002213462B
:1042B0001BEB070046EB0A51BDE8F04DFFF739BF95
:1042C000064C074D06E0E06840F0010394E8070063
:1042D00098471034AC42F6D3FBF72EFF2047000876
:1042E00040470008202A04DB203A21FA02F000218E
:1042F000704721FA02F3D040C2F1200291400843F6
:1043000019467047490050EAC12018BF04204A0DE1
:1043100018BF40F0010040F2FF72B2EB515F08BFDE
:1043200040F00200012808BF052070472DE9F04148
:104330004F1E00EBC7010446D1E9000115461E4699
:1043400037F006020DD02A463346FFF730FD7F1EB8
:1043500004EBC703D3E90023FFF782FC37F0060222
:10436000F1D1022F25D0042F13D0062F18BFBDE89E
:10437000F0812A463346FFF71AFDD4E90A23FFF7F6
:104380006FFC2A463346FFF712FDD4E90823FFF7F6
:1043900067FC2A463346FFF70AFDD4E90623FFF7F8
:1043A0005FFC2A463346FFF702FDD4E90423FFF7FA
:1043B00057FC2A463346FFF7FAFCD4E90223FFF7FD
:1043C0004FFC2A463346FFF7F2FCD4E90023BDE850
:1043D000F041FFF745BC0000024A00201107FFF73B
:1043E00007BF000001FDFFFF02E008C8121F08C15F
:1043F000002AFAD170477047002001E001C1121F66
:10440000002AFBD170470000014908607047000096
:104410000C0100202DE9F84F04460D4621F0004024
:1044200000917449884213DB7349884201DC08D14A
:104430003CB120462946BDE8F84F4FF00102FFF796
:10444000D7BE6E48002DCCBF6D496E49BDE8F88FD0
:104450006D49884211DA6D498842A8BF4FF0FF3696
:104460006DDA20462946FFF74DFF042808BFFFF705
:10447000B3FF20462946BDE8F88F6549654F25F012
:104480000045884233DA6449884219DA0026324608
:104490004FF0804320462946FFF7E2FB80468A46DC
:1044A000012220462946FFF7A3FE00223B46FFF7E4
:1044B00078FC42465346FFF7ECFC04460D463EE0CE
:1044C00001260022BA463B4620462946FFF7C8FB94
:1044D00080460F460022534620462946FFF761FCDE
:1044E00042463B46FFF7D5FC04460D4627E04B49C4
:1044F00088421BDADFF82881022600224346204644
:104500002946FFF754FC00223B46FFF7A9FB07466C
:104510008A460022434620462946FFF742FC3A4697
:104520005346FFF7B6FC04460D4608E00326224634
:104530002B4600203B49FFF7ACFC04460D462246C3
:104540002B4610461946FFF732FC8B468246024640
:104550000B46FFF72CFC07460246334888460B46BD
:1045600006217844FFF7E2FE52465B46FFF71FFC48
:1045700082462E488B463A46434605217844FFF74B
:10458000D5FE3A464346FFF712FC02460B46002E84
:10459000504659460CDAFFF763FB22462B46FFF7DD
:1045A00006FC01B022462B46BDE8F04FFFF7FCBBEE
:1045B000FFF756FB22462B46FFF7F9FB1C4A7A44CD
:1045C00002EBC603D3E90023FFF7EBFB22462B46A1
:1045D000FFF7E7FB174A7A4402EBC603D3E900234F
:1045E000FFF7E2FB009A002AB8BF81F00041BDE866
:1045F000F88F0000000010440000F07F182D445494
:10460000FB21F93FFB21F9BF0000DC3F0000203E09
:104610000000F33F0000F03F0000E63F0080034051
:104620000000F83F0000F0BF8A01000048010000D0
:10463000E6000000AE0000002DE9F04106460F46FE
:10464000FFF7EDFD04000D4618BF0120284320F0C0
:104650000040C0F17F6000F1E040C00F0FD0002E9D
:1046600014BF01200020384320F00040C0F17F60DB
:1046700000F1E040C00F04BF0120FFF7C5FE204657
:104680002946BDE8F08100004FBB610567ACDD3F06
:10469000182D4454FB21E93F9BF681D20B73EF3F69
:1046A000182D4454FB21F93FE2652F227F2B7A3CE1
:1046B000075C143326A6813CBDCBF07A8807703C9A
:1046C000075C143326A6913CC4EB98999999C9BF0D
:1046D000711623FEC671BCBF6D9A74AFF2B0B3BF42
:1046E0009AFDDE522DDEADBF2F6C6A2C44B4A2BF02
:1046F0000D5555555555D53FFF8300922449C23F6E
:104700006E204CC5CD45B73F513DD0A0660DB13FA1
:10471000EB0D76244B7BA93F11DA22E33AAD903FB3
:10472000404700080000002010010000E843000896
:104730005048000810010020B8040000F8430008A9
:10474000005F6000000000000000000000000000AA
:104750000000000000000000000000000000000059
:104760000000000001010000000000000000000047
:104770000000000000000000000000000000000039
:104780000000000000000000000000000000000029
:104790000000000000000000000000000000000019
:1047A0000000000000000000000000000000000009
:1047B00000000000000096430AD7233C00000000E0
:1047C0000000803F0000000000000000000000002A
:1047D00000000000000000000000000000000000D9
:1047E0000000803F00000000000000000000803F4B
:1047F00000000000000000000000000000000000B9
:1048000000000000000000000000000000000000A8
:104810000000000000000000000000000000000098
:10482000010000000001020304010203040607085E
:10483000090204060800000000A24A04000000006B
:104840000000000001020304060708090000000040
:0400000508000131BD
:00000001FF
